:1000000000308A0052280000FF00030E8301A10087
:100010000A08A0008A010408A2007708A300780853
:10002000A4007908A5007A08A600831383128C30F7
:100030008400801E1D288C1A2E2822088400230884
:10004000F7002408F8002508F9002608FA0020081F
:100050008A00210E8300FF0E7F0E09008A110A120A
:1000600031288C1E31281A08A70027080C1E3628B4
:1000700099008C128A110A121D282F3084008313D4
:100080000008031951280130F800F701F70B462842
:10009000F80B45284A30F700F70B4C284F28800B07
:1000A0004328080003081F398300831603178711AC
:1000B000193003139900A6309800903083129800ED
:1000C000FF30A800831603170908C03989000313FD
:1000D0001F129F12003003178800831287018801C6
:1000E000890183130313A901AA01AB01AC01AD017E
:1000F000AE010030831686008312860183168500C8
:100100008312850183168C16C03083128B041F1353
:100110009F1783169F1383121F1428112808831614
:100120008700831207110C30970083169B019C01F6
:1001300001309D008312A8102808831687008312BF
:1001400087100C309D006430AF003D200030F80077
:1001500006389200FF308316920083122708613A16
:100160000319D728033A0319DE28013A0319E628B0
:10017000073A0319EE28013A0319F628033A03193E
:10018000FD28013A031905290F3A03190D29013AEF
:1001900003191529033A03191C29013A03192229C5
:1001A000073A03192929013A031930293729FA3066
:1001B00095009B000130AF003D203D29FA309500AD
:1001C000AF309B000130AF003D203D29FA30950053
:1001D00064309B000130AF003D203D29AF309500D9
:1001E000FA309B000130AF003D203D29AF30950033
:1001F0009B000130AF003D203D29AF3095006430B9
:100200009B000130AF003D203D2964309500FA305D
:100210009B000130AF003D203D2964309500AF3098
:100220009B000130AF003D203D29643095009B00CC
:100230000130AF003D203D29AE01AB01FA30AF00E7
:100240003D203D29AE010130AB00FA30AF003D202A
:100250003D290130AE00AB01FA30AF003D203D2911
:100260000130AE00AB00FA30AF003D203D29FF3039
:1002700095009B000130AF003D202E080319442952
:10028000013A03194D2955292908073C031C4B291C
:100290000130A9074C29A90155292908033C031C51
:1002A00054290130A9075529A901AB08031D942938
:1002B000290803197129013A03197529033A031909
:1002C0007929013A03197D29073A03198129013A4D
:1002D00003198529033A03198829013A03198C293E
:1002E00090293830850086009329073085008600E4
:1002F00093292830850086009329053085008600E3
:1003000093293030850086009329063085008600C9
:1003100018308500860093290330850086009329D4
:10032000083085008600CF2929080319AD29013A34
:100330000319B129033A0319B529013A0319B92957
:10034000073A0319BD29013A0319C129033A0319D0
:10035000C529013A0319C929CC291F308500860017
:10036000CF29363085008600CF292D3085008600C4
:10037000CF29243085008600CF291B3085008600D8
:10038000CF29093085008600CF293B3085008600C3
:10039000CF29123085008600093085008600AE28FE
:0203A0006300F8
:04400E00E12FFF3F60
:00000001FF
;PIC16F887
;CRC=B311  CREATED="02-feb.-21 22:20"
